{
  "transactions": [
    {
      "hash": "0x9c586c314fab32a89d38023586f17a4de191b40ae061e598ede1c3d9b11dccde",
      "transactionType": "CALL",
      "contractName": null,
      "contractAddress": "0xb5e1fbc85de2ec362da88a01e07909ea53afa329",
      "function": "initialize(address,uint8,string,string)",
      "arguments": [
        "0x5AFE2041B2bf3BeAf7fa4E495Ff2E9C7bd204a34",
        "2",
        "\"Staked Token\"",
        "\"sToken\""
      ],
      "transaction": {
        "from": "0x59ad4cfeb3d96a60192c87a094f96e321ac52fd7",
        "to": "0xb5e1fbc85de2ec362da88a01e07909ea53afa329",
        "gas": "0x5f120",
        "value": "0x0",
        "input": "0x42fe09800000000000000000000000005afe2041b2bf3beaf7fa4e495ff2e9c7bd204a340000000000000000000000000000000000000000000000000000000000000002000000000000000000000000000000000000000000000000000000000000008000000000000000000000000000000000000000000000000000000000000000c0000000000000000000000000000000000000000000000000000000000000000c5374616b656420546f6b656e0000000000000000000000000000000000000000000000000000000000000000000000000000000000000000000000000000000673546f6b656e0000000000000000000000000000000000000000000000000000",
        "nonce": "0xb",
        "chainId": "0x14a34"
      },
      "additionalContracts": [],
      "isFixedGasLimit": false
    }
  ],
  "receipts": [
    {
      "status": "0x1",
      "cumulativeGasUsed": "0xa68c9a",
      "logs": [
        {
          "address": "0xb5e1fbc85de2ec362da88a01e07909ea53afa329",
          "topics": [
            "0x2f8788117e7eff1d82e926ec794901d17c78024a50270940304540a733656f0d",
            "0x0000000000000000000000000000000000000000000000000000000000000000",
            "0x00000000000000000000000059ad4cfeb3d96a60192c87a094f96e321ac52fd7",
            "0x00000000000000000000000059ad4cfeb3d96a60192c87a094f96e321ac52fd7"
          ],
          "data": "0x",
          "blockHash": "0xd0841ca28c1cf474dd73e795c8635107fb92428c7b435d41434045de1e9c8871",
          "blockNumber": "0x1923350",
          "transactionHash": "0x9c586c314fab32a89d38023586f17a4de191b40ae061e598ede1c3d9b11dccde",
          "transactionIndex": "0xc6",
          "logIndex": "0x53",
          "removed": false
        },
        {
          "address": "0xb5e1fbc85de2ec362da88a01e07909ea53afa329",
          "topics": [
            "0x2f8788117e7eff1d82e926ec794901d17c78024a50270940304540a733656f0d",
            "0xa49807205ce4d355092ef5a8a18f56e8913cf4a201fbe287825b095693c21775",
            "0x00000000000000000000000059ad4cfeb3d96a60192c87a094f96e321ac52fd7",
            "0x00000000000000000000000059ad4cfeb3d96a60192c87a094f96e321ac52fd7"
          ],
          "data": "0x",
          "blockHash": "0xd0841ca28c1cf474dd73e795c8635107fb92428c7b435d41434045de1e9c8871",
          "blockNumber": "0x1923350",
          "transactionHash": "0x9c586c314fab32a89d38023586f17a4de191b40ae061e598ede1c3d9b11dccde",
          "transactionIndex": "0xc6",
          "logIndex": "0x54",
          "removed": false
        },
        {
          "address": "0xb5e1fbc85de2ec362da88a01e07909ea53afa329",
          "topics": [
            "0xc7f505b2f371ae2175ee4913f4499e1f2633a7b5936321eed1cdaeb6115181d2"
          ],
          "data": "0x0000000000000000000000000000000000000000000000000000000000000001",
          "blockHash": "0xd0841ca28c1cf474dd73e795c8635107fb92428c7b435d41434045de1e9c8871",
          "blockNumber": "0x1923350",
          "transactionHash": "0x9c586c314fab32a89d38023586f17a4de191b40ae061e598ede1c3d9b11dccde",
          "transactionIndex": "0xc6",
          "logIndex": "0x55",
          "removed": false
        }
      ],
      "logsBloom": "0x00000004000000000000000000000000000000000000000000000000000000000000000000000000000000000000000000000000000000000000000000000000000000000000000000000000000000000000000020000000000000000000000000000000020000000000000000000800000000000000000800000000000000000000008000000000000800000000004000000000000080000000000000000000000000000000000000800000000000000000000000000000001000000000000000000000000000000000000000000004000000000004000100000800000020000000000000000000000000000000000040000000000002000000000000000000",
      "type": "0x2",
      "transactionHash": "0x9c586c314fab32a89d38023586f17a4de191b40ae061e598ede1c3d9b11dccde",
      "transactionIndex": "0xc6",
      "blockHash": "0xd0841ca28c1cf474dd73e795c8635107fb92428c7b435d41434045de1e9c8871",
      "blockNumber": "0x1923350",
      "gasUsed": "0x44d45",
      "effectiveGasPrice": "0x191b5705",
      "from": "0x59ad4cfeb3d96a60192c87a094f96e321ac52fd7",
      "to": "0xb5e1fbc85de2ec362da88a01e07909ea53afa329",
      "contractAddress": null,
      "l1BaseFeeScalar": "0x44d",
      "l1BlobBaseFee": "0x2",
      "l1BlobBaseFeeScalar": "0xa118b",
      "l1Fee": "0xd9",
      "l1GasPrice": "0x16",
      "l1GasUsed": "0x7f3"
    }
  ],
  "libraries": [],
  "pending": [],
  "returns": {},
  "timestamp": 1748485510,
  "chain": 84532,
  "commit": "a0e2df6"
}